{
    "contractName": "AllowancesAndBalancesChecker",
    "abi": [
        {
            "constant": true,
            "inputs": [
                {
                    "name": "user",
                    "type": "address"
                },
                {
                    "name": "token",
                    "type": "address"
                },
                {
                    "name": "spender",
                    "type": "address"
                },
                {
                    "name": "amount",
                    "type": "uint256"
                }
            ],
            "name": "allowanceAndBalanceCheck",
            "outputs": [
                {
                    "name": "",
                    "type": "uint256"
                }
            ],
            "payable": false,
            "stateMutability": "view",
            "type": "function"
        },
        {
            "constant": true,
            "inputs": [
                {
                    "name": "users",
                    "type": "address[]"
                },
                {
                    "name": "tokens",
                    "type": "address[]"
                },
                {
                    "name": "spender",
                    "type": "address"
                },
                {
                    "name": "amounts",
                    "type": "uint256[]"
                }
            ],
            "name": "allowancesAndBalancesResult",
            "outputs": [
                {
                    "name": "",
                    "type": "uint256[]"
                }
            ],
            "payable": false,
            "stateMutability": "view",
            "type": "function"
        },
        {
            "payable": true,
            "stateMutability": "payable",
            "type": "fallback"
        }
    ],
    "bytecode": "0x6060604052341561000f57600080fd5b61067b8061001e6000396000f30060606040526004361061004c576000357c0100000000000000000000000000000000000000000000000000000000900463ffffffff16806362b5dea514610051578063d64a7eb9146100e5575b600080fd5b341561005c57600080fd5b6100cf600480803573ffffffffffffffffffffffffffffffffffffffff1690602001909190803573ffffffffffffffffffffffffffffffffffffffff1690602001909190803573ffffffffffffffffffffffffffffffffffffffff169060200190919080359060200190919050506101af565b6040518082815260200191505060405180910390f35b34156100f057600080fd5b61015860048080359060200190820180359060200191909192908035906020019082018035906020019190919290803573ffffffffffffffffffffffffffffffffffffffff1690602001909190803590602001908201803590602001919091929050506104c4565b6040518080602001828103825283818151815260200191508051906020019060200280838360005b8381101561019b578082015181840152602081019050610180565b505050509050019250505060405180910390f35b600080600080863b925060008311801561029757508673ffffffffffffffffffffffffffffffffffffffff166370a082317c0100000000000000000000000000000000000000000000000000000000027c01000000000000000000000000000000000000000000000000000000009004896040518263ffffffff167c0100000000000000000000000000000000000000000000000000000000028152600401808273ffffffffffffffffffffffffffffffffffffffff1673ffffffffffffffffffffffffffffffffffffffff1681526020019150506000604051808303816000875af1925050505b156104af578673ffffffffffffffffffffffffffffffffffffffff1663dd62ed3e89886040518363ffffffff167c0100000000000000000000000000000000000000000000000000000000028152600401808373ffffffffffffffffffffffffffffffffffffffff1673ffffffffffffffffffffffffffffffffffffffff1681526020018273ffffffffffffffffffffffffffffffffffffffff1673ffffffffffffffffffffffffffffffffffffffff16815260200192505050602060405180830381600087803b151561036a57600080fd5b5af1151561037757600080fd5b5050506040518051905091508673ffffffffffffffffffffffffffffffffffffffff166370a08231896040518263ffffffff167c0100000000000000000000000000000000000000000000000000000000028152600401808273ffffffffffffffffffffffffffffffffffffffff1673ffffffffffffffffffffffffffffffffffffffff168152602001915050602060405180830381600087803b151561041d57600080fd5b5af1151561042a57600080fd5b5050506040518051905090508482101580156104465750848110155b1561045457600393506104b9565b84821015801561046357508481105b1561047157600293506104b9565b84821080156104805750848110155b1561048e57600193506104b9565b848210801561049c57508481105b156104aa57600093506104b9565b6104b8565b600493506104b9565b5b505050949350505050565b6104cc61063b565b6104d461063b565b6000898990506040518059106104e75750595b90808252806020026020018201604052509150600090505b8989905081101561062b57600073ffffffffffffffffffffffffffffffffffffffff16888883818110151561053057fe5b9050602002013573ffffffffffffffffffffffffffffffffffffffff1673ffffffffffffffffffffffffffffffffffffffff161415156105ff576105de8a8a83818110151561057b57fe5b9050602002013573ffffffffffffffffffffffffffffffffffffffff1689898481811015156105a657fe5b9050602002013573ffffffffffffffffffffffffffffffffffffffff168888888681811015156105d257fe5b905060200201356101af565b82828151811015156105ec57fe5b906020019060200201818152505061061e565b6004828281518110151561060f57fe5b90602001906020020181815250505b80806001019150506104ff565b8192505050979650505050505050565b6020604051908101604052806000815250905600a165627a7a72305820ff4735ca47635306496174a3d009742d1bbf937629267fb6160b891f7df933960029",
    "source": "pragma solidity ^0.4.21;\n\n// ERC20 contract interface\ncontract Token {\n  function balanceOf(address) public view returns (uint);\n\n  function allowance(address, address) public view returns (uint);\n}\n\n\ncontract AllowancesAndBalancesChecker {\n  /* Fallback function, don't accept any ETH */\n  function() public payable {\n    revert();\n  }\n\n  /*\n    Checks if there is token balance and allowance for a \n    specific amount and given wallet address\n\n    Returns the following to avoid possible errors:\n      - return 4 on non-contract address \n      - returns 4 if the contract doesn't implement balanceOf\n\n    Returns\n      - 0 for No Allowance, No Balance\n      - 1 for No Allowance, Balance\n      - 2 for Allowance, No Balance\n      - 3 for Allowance, Balance\n  */\n  function allowanceAndBalanceCheck(address user, address token, address spender, uint amount) public view returns (uint) {\n    // check if token is actually a contract\n    uint256 tokenCode;\n    assembly { tokenCode := extcodesize(token) } // contract code size\n  \n    // is it a contract and does it implement balanceOf \n    if (tokenCode > 0 && token.call(bytes4(0x70a08231), user)) {  \n      uint256 allowance = Token(token).allowance (user, spender);\n      uint256 balance = Token(token).balanceOf(user);\n      if(allowance >= amount && balance >=  amount){\n        return 3;\n      }\n      if(allowance >= amount && balance < amount){\n        return 2;\n      }\n      if(allowance < amount && balance >= amount){\n        return 1;\n      }\n      if(allowance < amount && balance < amount){\n        return 0;\n      }\n    } else {\n      return 4;\n    }\n  }\n\n  /*\n    Checks if the given wallet addresses have allowance and balance\n    for specific token address and amount\n\n    Possible error throws:\n      - extremely large arrays for user and or tokens (gas cost too high) \n          \n    Returns a one-dimensional that's users.length long. Each element\n    of the array represent a value if the allowance and the balance is available\n    for a given wallet address, token addres, spender, amount\n  */\n  function allowancesAndBalancesResult(address[] users, address[] tokens, address spender, uint[] amounts) external view returns ( uint []) {\n    uint[] memory result  = new uint[](users.length);\n    \n    for(uint i = 0; i < users.length; i++) {\n        if (tokens[i] != address(0x0)) { \n          result[i] = allowanceAndBalanceCheck(users[i], tokens[i], spender, amounts[i]);\n        } else {\n          result[i] = 4; \n        }\n\n    }\n  \n    return result;\n  }\n\n}",
    "sourcePath": "/home/zpxdev/zpx/apps/node/eth_balance_checker/contracts/AllowancesAndBalancesChecker.sol",
    "compiler": {
        "name": "solc",
        "version": "0.4.21+commit.dfe3193c.Emscripten.clang"
    },
    "schemaVersion": "2.0.0",
    "updatedAt": "2019-04-17T07:57:26.065Z"
}